:100000000C9451000C9479000C9479000C947900B4
:100010000C9479000C9479000C94AE0B0C9479003C
:100020000C9479000C9479000C9479000C9479006C
:100030000C9479000C9479000C948B0C0C943C0D6E
:100040000C9479000C9479000C9479000C9479004C
:100050000C943F0B0C9479000C9479000C9479006B
:100060000C94640B0C9479000C9479000C94790036
:100070000C9479000C94F50A0C9479000C94790096
:100080000C9479000C9479000C94890B0C941A0B45
:100090000C94270C0C94F90B0C94D30B0C94790052
:1000A000350E11241FBECFEFCDBFDFE3DEBF18E258
:1000B000A0E0B8E2EBE7FAE202C005900D92AA30A8
:1000C000B107D9F72AE2AAE0B8E201C01D92AA3925
:1000D000B207E1F710E0C1E5D0E004C02197FE01CE
:1000E0000E94C412C035D107C9F70E94830E0C9438
:1000F000BC140C940000AB01A091A529B091A629D5
:10010000ED91FC9111970280F381E02DBC01CD01AE
:100110000994CF93DF931F92CDB7DEB7898361E057
:1001200070E0CE0101960E947B000F90DF91CF918D
:100130000895CF93DF93EC018991882319F00E94F1
:100140008900FACFDF91CF910895FC015489458948
:10015000252F30E0842F90E0821B930B541710F072
:10016000CF96089501970895FC0192898389981785
:1001700061F0A389AE0FBF2FB11D59968C91938961
:100180009F5F9F73938B90E008958FEF9FEF08958B
:10019000FC0192898389981731F08389E80FF11D5A
:1001A000818D90E008958FEF9FEF0895FC01928973
:1001B0002389892F90E0805C9F4F821B91098F7368
:1001C00099270895CF93DF93EC01E881F9810680A8
:1001D000F781E02D0995EC85FD8586818F738683F7
:1001E000EC85FD8585818F7585838B898A8B198A3E
:1001F000DF91CF910895CF93DF93FC019489858996
:10020000C485D585981306C08D818F7D8D83DF9140
:10021000CF910895A589AE0FBF2FB11DA75ABF4F2B
:100220002C91858990E001968F739927858B80E4C6
:100230008C83A485B58512962C939489858998130F
:10024000E6CFA485B58515968C9115978F7D15966B
:100250008C9387898823D9F2808D80931301178A24
:10026000D6CFDC011C96ED91FC910FB607FE03C0C2
:10027000258125FD04C0248125FD0C94FB000895F3
:10028000EF92FF920F931F93CF93DF93EC0181E0E6
:10029000898B9C898D8998131CC0AC85BD8514966B
:1002A0008C91149785FF15C012966C93AC85BD8513
:1002B00080E414968C93EC85FD8585818F7D858304
:1002C00081E090E0DF91CF911F910F91FF90EF902F
:1002D00008958091110180FF08C080911301888FDB
:1002E0008E898093130181E08F8BF62E0C8910E0AC
:1002F0000F5F1F4F0F731127E02E8D898E1104C0E1
:10030000CE010E943101F9CFEC89EC0FFD2FF11DD8
:10031000E75AFF4FF0820C8BEC85FD85858180626A
:10032000CECFCF93DF93FC0121892223C9F0EC01CA
:100330008091110180FF08C080911301808F868910
:100340008093130181E0878BEC85FD85858185FD98
:1003500003C0848186FD04C0CE010E943101F4CF28
:10036000DF91CF910895AF92BF92CF92DF92EF923B
:10037000FF920F931F93CF93DF936C017B018B014F
:10038000040F151FEB015E01AE18BF08C017D1079F
:1003900059F06991D601ED91FC910190F081E02D29
:1003A000C6010995892B79F7C501DF91CF911F917E
:1003B0000F91FF90EF90DF90CF90BF90AF90089596
:1003C000EF92FF920F931F93CF93DF93C82FD0E04C
:1003D000A09695E0CC0FDD1F9A95E1F7E984082FF0
:1003E000000F000F000FFF24F39410E08E2D8F21DB
:1003F00089F0E02FE10FF0E0EE0FFF1FE75CF64D14
:1004000080819181892B31F00190F081E02D90E085
:1004100080E009951F5FFF0C183041F7E986DF91F6
:10042000CF911F910F91FF90EF90089581E0089573
:10043000CF93DF9390E0FC01E653F64920812F3FF4
:1004400069F0FC01E055F649E08130E2E39FF001FC
:100450001124FC5F6130710521F42183DF91CF917C
:1004600008958A569649EC01A881AF3F69F0CF0103
:100470004096A80FB92FB11D9FB7F89422838C9195
:1004800088608C939FBFEACFB0E0A0E0F5CF8B32BD
:1004900010F40C9418020895282F30E0F901E45864
:1004A000F649E081EE2309F1E13021F0F0F0E63089
:1004B00098F008954091010A2A563649F9012081A1
:1004C0002C5F81E090E001C0880F2A95EAF78095C3
:1004D00084238093010A089580E1E89FF0011124AC
:1004E000E05AF54F81818F7E81830895FF920F93AB
:1004F0001F93CF93DF93082F10E0F801E653F649DE
:10050000F0809FEFF916A1F0EB018B3210F40E94FE
:100510004C02F801E055F649E08180E2E89FF001E5
:100520001124FC5F80818F2159F0CD2B39F4F682A4
:10053000DF91CF911F910F91FF900895F582F8CF31
:10054000D801AA56B6498C91309771F08F3F61F06F
:100550007096E80FF11D9FB7F8948081CD2B39F488
:10056000877F80839FBFE4CFF0E0E0E0F4CF886036
:10057000F8CFCF92DF92EF92FF920F931F93CF931A
:10058000DF93EC016A017B01022F8989882339F00E
:10059000E881F9810288F389E02DCE0109959889D7
:1005A0008091E205892B8093E2051FB7F89460E003
:1005B00070E281EA97E0A70196010E945612690154
:1005C0007A018FEFC81AD80AE80AF80AF694E79475
:1005D000D794C794EC85FD8586818D7F8683EC85D5
:1005E000FD8586818683198AA09123110A2E000C2D
:1005F000BB0BA70196010E941D1220E034E040E0F1
:1006000050E00E94F311EC85FD85C20ED31EE41E5E
:10061000F51EC086D186EC85FD850783EC85FD85BA
:100620008681806C8683EC85FD85858180688583E5
:100630008E8562E070E00E9447028F858B3220F445
:1006400061E070E00E9476028F8561E070E00E94B8
:1006500047021FBFDF91CF911F910F91FF90EF9045
:10066000DF90CF9008950F931F93CF93082F10E042
:10067000F801E653F649C081CF3FB9F08B3210F450
:100680000E944C02F801E055F649E08180E2E89FC3
:10069000F0011124FC5F8085C82381E090E009F41B
:1006A00080E0CF911F910F91089580E090E0F9CF05
:1006B000CF93DF938FB7F894209135293091362965
:1006C0004091372950913829E091BA0A9091B60AA1
:1006D00090FF06C02F5F3F4F4F4F5F4FE091BA0A28
:1006E0008FBFA0919F29B091A029C0919D29D09141
:1006F0009E290E941212EC9F9001ED9F300D112453
:10070000620F731F811D911DDF91CF910895EF92AC
:10071000FF920F931F93CF93DF937C01EB018B012B
:10072000040F151FC017D10759F0D701ED91FC91A7
:100730000190F081E02D6881C70109958993F2CF7E
:10074000DF91CF911F910F91FF90EF9008950F933C
:100750001F93CF93DF93EC018B018091C008E88158
:10076000F9810190F081E02D86FD13C0612FCE014B
:100770000995182FE881F9810190F081E02D602F13
:10078000CE010995082FC801DF91CF911F910F91DC
:100790000895CE010995082FE881F9810190F08133
:1007A000E02D612FCE010995182FEDCF0000609349
:1007B000C4088091C30887FFFCCF8091C4080895C6
:1007C0008F929F92AF92BF92CF92DF92EF92FF9261
:1007D0000F931F93CF93DF93FC018085882319F03B
:1007E00081FF0EC07894DF91CF911F910F91FF9000
:1007F000EF90DF90CF90BF90AF909F908F90089533
:1008000080FFF1CF82849384A484B584C12CD12C41
:10081000760110E09401A501B601C701A0E00E9495
:10082000B81299F1217030E040E050E060E070E0F3
:1008300080E090E00E94B812D9F0D0E0C0E0103320
:1008400070F4C12FC695C695C69580E2C89FE00199
:100850001124C05FDB4F812F8770C80FD11DCF01DE
:10086000810F911DDC0152968C919881892B888390
:100870009401A501B601C70101E00E949D12490142
:100880005A016B017C011F5FC5CF86849784A088C5
:10089000B188C12CD12C760110E29401A501B601DA
:1008A000C701A0E00E94B81209F49DCF217030E08A
:1008B00040E050E060E070E080E090E00E94B8121C
:1008C000D9F0D0E0C0E0103370F4C12FC695C695C2
:1008D000C695B0E2CB9FE0011124C05FDB4F812FB2
:1008E0008770C80FD11DCF01810F911DDC01529679
:1008F0008C919881892B88839401A501B601C70149
:1009000001E00E949D1249015A016B017C011F5FA9
:10091000C4CFFC016F3F710581F1808581FD2DC041
:10092000603271055CF581E090E002C0880F991F8C
:100930006A95E2F780959095092E000CAA0BBB0BE7
:10094000428553856485758584239523A623B72323
:1009500082879387A487B58782859385A485B5858B
:10096000892B8A2B8B2B49F486859785A089B189A1
:10097000892B8A2B8B2B09F41086089560527109FC
:1009800081E090E002C0880F991F6A95E2F7809598
:100990009095092E000CAA0BBB0B468557856089E4
:1009A000718984239523A623B72386879787A08BF5
:1009B000B18BD2CFFC016F3F7105E9F16033710556
:1009C0001CF082E080870895808581608087603296
:1009D0007105C4F481E090E002C0880F991F6A9508
:1009E000E2F7092E000CAA0BBB0B428553856485E8
:1009F0007585842B952BA62BB72B82879387A4878D
:100A0000B58708956052710981E090E002C0880FB7
:100A1000991F6A95E2F7092E000CAA0BBB0B4685BD
:100A2000578560897189842B952BA62BB72B8687D8
:100A30009787A08BB18B0895E0ECF8E020812E7FA2
:100A40002083FC0117820895E0ECF8E082818E7F1C
:100A500082830895E0ECF8E08281816082830895CA
:100A60000F9391E0909332291092312960932F29AE
:100A70007093302940932E2920932D2910922C29F0
:100A800010922B2900932A29880F8093292923E08B
:100A900030E044E050E080912E29882341F02093FB
:100AA000272930932829809129298E7F0BC0809196
:100AB0002D29882351F0409327295093282980918C
:100AC000292981608093A70808C080912E2981116F
:100AD00004C080912D29882311F380913129882326
:100AE000E1F3809131298330B1F280912D2988235F
:100AF00021F080912B290F91089580913129823026
:100B000031F0853031F0813031F480E0F4CF81E094
:100B1000F2CF83E0F0CF84E0EECFE0EAF8E0918519
:100B20009066918722E030E020932729309328298E
:100B30008093192910921829089581E0809318292B
:100B40001092192993E09093AA089091AB0891FF15
:100B500010C010922529E0911629F09117290995C6
:100B60008093242985E090E0809327299093282979
:100B70000895109226298093232986E090E0F4CFEF
:100B80006093142970931529089560931229709326
:100B900013290895E0911429F0911529309741F017
:100BA0001092112910921029099580911029089509
:100BB00080E00895E0911229F0911329309759F0BF
:100BC00030910F2920910E29321728F010920F2909
:100BD00080930E29099408950895E0910F2980913A
:100BE0000E29E81730F4F0E0E257F74D808190E0ED
:100BF00008958FEF9FEF089590910F2980910E290E
:100C00002FEF3FEF981748F4E92FF0E0E257F74D48
:100C1000208130E09F5F90930F29C9010895809152
:100C20000E2990910F29891B990B0895CF92DF927D
:100C3000EF92FF920F931F93CF93DF937C018A0172
:100C4000EB016B01C40ED51ECC15DD0551F0699189
:100C5000D701ED91FC910190F081E02DC70109953C
:100C6000F3CFC801DF91CF911F910F91FF90EF90CB
:100C7000DF90CF9008952091102927FF08C021E030
:100C800030E0FC012283338390E080E0089580917E
:100C90001129E82FF0E0E25FF74D60838F5F8093CA
:100CA00011298093102981E090E00895DC01ED91F5
:100CB000FC91008CF18DE02D61E009940F938091FF
:100CC0002729909128290197A1F480913229811137
:100CD00012C0062F20E0409110296EE078E280914A
:100CE0000D280E94300510921129109210290F91A1
:100CF000089580E0F8CF81E0F6CF60930D28109240
:100D00001129109210290895DC01ED91FC91048CB9
:100D1000F58DE02D21E009940F938EE898E2809301
:100D20001A2990931B2980912729909128290197AE
:100D3000C1F480913229811116C0FA014138510560
:100D400010F0E0E8F0E0022F862F2E2F40E070E058
:100D500060E00E94300510920F2980930E290F91B8
:100D6000089580E0F8CF81E0F6CF8F929F92AF9206
:100D7000BF92CF92DF92EF92FF92CF93DF934034F6
:100D80008DE0580783E06807710508F44EC04115EF
:100D900085E358078CE06807710508F43FC04038C8
:100DA0005F446241710508F040C0C8E7D0E020E42C
:100DB00032E44FE050E08090002890900128A0900D
:100DC0000228B0900328C501B4010E94561269019F
:100DD0007A018AE0C81AD108E108F108DE01A5010C
:100DE00094010E94121220E03AEC4AE95BE30E946F
:100DF0005612C21AD30AE40AF50AF694E794D79475
:100E0000C794C092A608DF91CF91FF90EF90DF903A
:100E1000CF90BF90AF909F908F900895CCE2D1E09B
:100E200020E83AE146E050E0C6CFC8EED3E020EA41
:100E300036E841E050E0BFCFE0EAF8E013821682E6
:100E400081E0858314861186109227291092282923
:100E5000089510920F2910920E29109211291092C4
:100E600010298091272990912829892BD9F482E093
:100E700090E0809327299093282910922629109298
:100E80002529109218291092192910920C281092D5
:100E90002329660F6093AC0881EE8093A90881E056
:100EA0008093A3088AEC95E08093162990931729E4
:100EB0008EE098E280931C2990931D298AED95E09D
:100EC00080932129909322298EE898E280931E290D
:100ED00090931F2980E88093202908958F929F92F4
:100EE000AF92BF92CF92DF92EF92FF9210920F29B2
:100EF00010920E2910921129109210298091272901
:100F000090912829892B09F04FC062E070E086E1BA
:100F10000E94180262E070E087E10E94180280914E
:100F2000E3058093E30581E090E080932729909387
:100F3000282910922B2910922C29109232291092D4
:100F4000312981EC8093A30880900028909001289B
:100F5000A0900228B0900328C501B40120EA36E829
:100F600041E050E00E94561269017A018AE0C81AF5
:100F7000D108E108F108A8EEB3E0A50194010E94B0
:100F8000121220E03AEC4AE95BE30E945612C21AC0
:100F9000D30AE40AF50AF694E794D794C794C0926A
:100FA000A60881E08093A508FF90EF90DF90CF9096
:100FB000BF90AF909F908F90089590E080E008954B
:100FC000DC01ED91FC910088F189E02D23E030E017
:100FD00009948F929F92AF92BF92EF92FF920F93DC
:100FE0001F93CF93DF93CDB7DEB7A197CDBFDEBF01
:100FF0007C01FA01CB0119A2223008F42AE08E010B
:101000000F5D1F4F822E912CB12CA12CBF01A50189
:1010100094010E945612F901CA016A305CF5605DC4
:10102000D8016E938D01232B242B252B79F790E08B
:1010300080E0109789F0FD0101900020E9F73197D9
:10104000AF014A1B5B0BD701ED91FC910280F3814C
:10105000E02DB801C7010995A196CDBFDEBFDF9194
:10106000CF911F910F91FF90EF90BF90AF909F9005
:101070008F900895695CD4CF0F931F93CF93DF9324
:10108000EC0188819981009759F02A813B812617CC
:10109000370730F081E0DF91CF911F910F910895D4
:1010A0008B016F5F7F4F0E94EF13009759F0888389
:1010B00099830A831B832C813D81232B59F7FC01E3
:1010C0001082E8CF80E0E7CF8F929F92AF92BF92DD
:1010D000CF92DF92EF92FF920F931F93CF93DF9304
:1010E0007C01EB016C0182E0C80ED11C4701E5E0F8
:1010F0008E0E911C10E000E0F60141916F0150E06E
:1011000070E060E02AE0CE010E94E9075C01E8811E
:10111000F9810190F081E02D6EE2CE0109958A0DF2
:101120009B1D080F191FC814D90431F7F701458119
:1011300050E070E060E02AE0CE010E94E907800FF5
:10114000911FDF91CF911F910F91FF90EF90DF9052
:10115000CF90BF90AF909F908F900895EF92FF92A5
:101160000F931F93CF93DF936115710541F480E0D6
:10117000DF91CF911F910F91FF90EF90089541154E
:101180005105B1F07B01EC010C811D81040F151F8D
:10119000B8010E943C08882351F3288139818C8151
:1011A0009D81B701820F931F0E94B5140C831D838C
:1011B00081E0DECFCF93DF93EC01888199810097A6
:1011C00011F00E946613188219821C821D821A82F5
:1011D0001B82DF91CF910895CF93DF93EC01FB0148
:1011E00044815581608171810E94AE08811103C0E4
:1011F000CE010E94DA08CE01DF91CF910895EF92DF
:10120000FF920F931F93CF93DF93EC011882198203
:101210001A821B821C821D828617970719F1FB0117
:101220000081118101151105E9F0E480F580B70115
:101230000E943C08811109C0CE01DF91CF911F911E
:101240000F91FF90EF900C94DA08EC82FD82B801C8
:1012500088819981DF91CF911F910F91FF90EF903D
:101260000C94B514DF91CF911F910F91FF90EF90E7
:101270000895EF92FF920F931F93CF93DF93EC01AA
:101280007B01188219821A821B821C821D82FB013B
:1012900001900020E9F731978F01061B170BB80169
:1012A0000E943C08811109C0CE01DF91CF911F91AE
:1012B0000F91FF90EF900C94DA080C831D83B70117
:1012C00088819981DF91CF911F910F91FF90EF90CD
:1012D0000C94B514FC0180819181009711F00C945D
:1012E00066130895FC012281222321F083819481D9
:1012F0000C9466130895CF92DF92EF92FF920F93B2
:10130000FC01C12CB9E0DB2EBDE3EB2EF12CC08239
:10131000D182E282F3821482158281E090E086839A
:101320009783C0900028D0900128E0900228F09088
:101330000328F694E794D794C79490E04C155D0584
:101340006E057F0540F4F694E794D794C7949F5FA9
:101350009630A1F797E004600187892F8095A82F28
:10136000A170B0E084E0AA0FBB1F8A95E1F79162FB
:101370009A2B80E0232B09F480E4982B90870F911F
:10138000FF90EF90DF90CF9008950F931F93CF932E
:10139000DF93CDB7DEB72A97CDBFDEBF8C01FC014E
:1013A000878181110CC010861186128613861486DF
:1013B000158616861786108A118A81E087838091A8
:1013C000E305F8019681892B8093E30561E070E0E5
:1013D00083810E94470261E070E0F80184810E94ED
:1013E00047028091C10884608093C1088091C00841
:1013F00081628093C0084091402A5091412A6091B7
:10140000422A7091432A0091442A2091462A309121
:10141000472ACE0101960E947B0999858A8590937F
:10142000C0088093C1082A96CDBFDEBFDF91CF915F
:101430001F910F9108955F926F927F928F929F926A
:10144000AF92BF92CF92DF92EF92FF920F931F93D2
:10145000CF93DF93CDB7DEB76297CDBFDEBF3C0140
:101460000B871C872D873E87042F4F87588B698BEE
:101470007A8B29893A894B855C856D857E85CE017D
:1014800001960E947B0959841A85D30118968C9184
:10149000882319F081FF18C0F8945092C008109367
:1014A000C1086296CDBFDEBFDF91CF911F910F9132
:1014B000FF90EF90DF90CF90BF90AF909F908F9074
:1014C0007F906F905F90089580FFE7CFF301828453
:1014D0009384A484B584C12CD12C7601B0E094010E
:1014E000A501B601C701A0E00E94B812A9F12170C0
:1014F00030E040E050E060E070E080E090E00E948A
:10150000B812E9F090E080E0B03370F48B2F86954C
:1015100086958695F0E28F9FC0011124805F9B4FD6
:101520002B2F2770820F911DFC01408193012B0FFF
:10153000311DF901428BFC012081287F2083940119
:10154000A501B601C70101E00E949D1249015A019F
:101550006B017C01BF5FC3CFD3011E968D909D9020
:10156000AD90BC905197C12CD12C7601B0E2940182
:10157000A501B601C701A0E00E94B81209F48DCF01
:10158000217030E040E050E060E070E080E090E00A
:101590000E94B812E9F090E080E0B03370F48B2F35
:1015A000869586958695E0E28E9FC0011124805F26
:1015B0009B4F2B2F2770820F911DFC0140819301BF
:1015C0002B0F311DF901428BFC012081287F2083E4
:1015D0009401A501B601C70101E00E949D124901D5
:1015E0005A016B017C01BF5FC2CF1F920F920FB6F1
:1015F0000F9211242F933F934F935F936F937F9399
:101600008F939F93AF93BF93EF93FF9385E00E94D7
:10161000E001FF91EF91BF91AF919F918F917F91E9
:101620006F915F914F913F912F910F900FBE0F904F
:101630001F9018951F920F920FB60F9211242F939F
:101640003F934F935F936F937F938F939F93AF934A
:10165000BF93EF93FF9384E00E94E001FF91EF912D
:10166000BF91AF919F918F917F916F915F914F91BA
:101670003F912F910F900FBE0F901F9018951F92C2
:101680000F920FB60F9211242F933F934F935F93B6
:101690006F937F938F939F93AF93BF93EF93FF933A
:1016A00083E00E94E001FF91EF91BF91AF919F9184
:1016B0008F917F916F915F914F913F912F910F90FB
:1016C0000FBE0F901F9018951F920F920FB60F929A
:1016D00011242F933F934F935F936F937F938F9337
:1016E0009F93AF93BF93EF93FF9382E00E94E0013B
:1016F000FF91EF91BF91AF919F918F917F916F91EA
:101700005F914F913F912F910F900FBE0F901F90BF
:1017100018951F920F920FB60F9211242F933F939B
:101720004F935F936F937F938F939F93AF93BF93E9
:10173000EF93FF9381E00E94E001FF91EF91BF9151
:10174000AF919F918F917F916F915F914F913F9159
:101750002F910F900FBE0F901F9018951F920F9210
:101760000FB60F9211242F933F934F935F936F9374
:101770007F938F939F93AF93BF93EF93FF9380E0FB
:101780000E94E001FF91EF91BF91AF919F918F91E6
:101790007F916F915F914F913F912F910F900FBE6D
:1017A0000F901F9018951F920F920FB60F92112451
:1017B0002F933F934F935F936F937F938F939F9359
:1017C000AF93BF93EF93FF9387EA99E20E94FB00E8
:1017D000FF91EF91BF91AF919F918F917F916F9109
:1017E0005F914F913F912F910F900FBE0F901F90DF
:1017F00018951F920F920FB60F9211242F938F936B
:101800009F93EF93FF93E091B329F091B4298181E5
:1018100081FD1BC090818091B9298F5F8F732091CA
:10182000BA29821741F0E091B929F0E0E955F64D67
:10183000918F8093B929FF91EF919F918F912F9173
:101840000F900FBE0F901F9018958081F4CF1F92BC
:101850000F920FB60F9211242F933F934F935F93E4
:101860006F937F938F939F93AF93BF934091A129E1
:101870005091A2296091A3297091A42980913329C4
:101880009091342920919B2930919C29420F531F1C
:10189000611D711D2091992930919A29820F931F02
:1018A000883E23E0920730F0885E93404F5F5F4FA1
:1018B0006F4F7F4F80933329909334294093A12910
:1018C0005093A2296093A3297093A429809135296C
:1018D00090913629A0913729B09138290196A11D00
:1018E000B11D8093352990933629A0933729B09361
:1018F000382981E08093B60ABF91AF919F918F9173
:101900007F916F915F914F913F912F910F900FBEFB
:101910000F901F9018951F920F920FB60F921124DF
:101920002F933F934F935F936F937F938F939F93E7
:10193000AF93BF93CF93EF93FF93C091AB08C2FFD8
:101940000AC010922629109225291092242984E099
:101950000E948D0514C0C6FF2FC0809123298130BD
:1019600051F480912629E0912129F091222990E0DB
:10197000099510922329C0FF14C00E949D05FF9174
:10198000EF91CF91BF91AF919F918F917F916F9187
:101990005F914F913F912F910F900FBE0F901F902D
:1019A000189580E48093AB0881E00E948D058091BA
:1019B000AB0885FFE4CFE1CFC7FF5CC0C3FF08C021
:1019C00010922629109225291092242983E0C0CF55
:1019D0008091A90880668093A9088091AB0881FF57
:1019E0002CC080912529882349F08091AB0884FF81
:1019F00005C082E08093AA0881E0AACF90912529B2
:101A0000809124299817A8F4E091252980911C2918
:101A100090911D29E80FF92FF11D80818093AD0869
:101A2000809125298F5F8093252983E08093AA08E0
:101A3000A6CF82E08093AA088BCF9091262980912F
:101A40002029981790F48091AD08E09126292091E3
:101A50001E2930911F29E20FF32FF11D8083809101
:101A600026298F5F80932629E0CF86E08093AA08FD
:101A700082E06ECF85E06CCF1F920F920FB60F926F
:101A800011242F933F938F939F93EF93FF93809114
:101A9000A508982F9C70E1F08091A50894E082FF42
:101AA00093E0909331298093A50881E090E08093A2
:101AB00027299093282910923229FF91EF919F9125
:101AC0008F913F912F910F900FBE0F901F901895FF
:101AD00086FF4EC020912E2990912D298091A50836
:101AE00084FF15C080912A29882379F083E08093B0
:101AF000A40885E0809331291092322981E090E09A
:101B00008093272990932829D8CF81E0F0CF809126
:101B10002C29821790F4E0912C2980912F29909103
:101B20003029E80FF92FF11D80818093A80880915A
:101B30002C298F5F80932C29C0CF80912B29891766
:101B400060F484E090E08093272990932829809185
:101B5000292981608093A708B0CF80912A29882302
:101B600029F083E08093A40881E0C4CF81E0FACF1C
:101B700087FF40C090912B2980912D299817D8F488
:101B80008091A808E0912B2920911A2930911B29D6
:101B9000E20FF32FF11D808380912B298F5F8093BB
:101BA0002B2990912D2980912B298917D8F482E037
:101BB0008093A40882CF80912A29882389F087E026
:101BC0008093A40882E0809331291092322981E029
:101BD00090E0809327299093282910922D296DCF8A
:101BE00085E0EECF80912A29882311F087E0BACFD3
:101BF00085E0B8CF86E07ECFCF93DF93EC01862FD0
:101C0000688379831A821B821C821D821E821F8236
:101C1000188619861A861B8662E070E00E944702C9
:101C200088818B32C8F40E9433038C879D8788811A
:101C30008B32A8F40E9433038E879F8788818B3272
:101C400088F40E943303888B998B1C8A1D8A1E8A14
:101C50001F8ADF91CF91089590E080E0E6CF90E079
:101C600080E0EACF90E080E0EECFE7EAF9E212828E
:101C7000138288EE93E0A0E0B0E084839583A6838E
:101C8000B78388EE99E68083918380E698E0848725
:101C9000958788E1868789E1878780E4808B128A2F
:101CA000138A148A158A86E2868B178A108EE0E4DE
:101CB000FAE280E099E0ADE3B0E080839183A28313
:101CC000B3831482158281E090E086839783E8E4F1
:101CD000FAE282E09AE68083918312821382148270
:101CE000158262E070E08EE49AE20E94FC0D63E0EF
:101CF00070E086E69AE20E94FC0D64E070E08EE7F8
:101D00009AE20C94FC0DCF93DF93CDB7DEB76D97BD
:101D1000CDBFDEBF88ED90E084BF9093610080E08E
:101D200094E2A4EFB0E08093002890930128A09360
:101D30000228B093032880910206866080930206F1
:101D400080910006816080930006809102068F7C5E
:101D5000809302068091A0008F788093A0008091EC
:101D600002068061809302061092E20581E0809372
:101D7000E40583E08093010A8FEF90E08093260AC8
:101D80009093270A80E890E08093380A9093390A6C
:101D900080933A0A90933B0A80933C0A90933D0AC1
:101DA0008BE08093000A8091E50581608093E505D2
:101DB0008091E50582608093E505E0E8FAE037E090
:101DC0002FEF90E885E03183248795878083709694
:101DD000E03C4AE0F407B9F780E094E080939F2963
:101DE0009093A02980919F299091A0292FEF30E016
:101DF000B9010E94871260939D2970939E2980915A
:101E00009F299091A029E8EEF3E0BF010E9487127C
:101E100060939B2970939C2980919F299091A02980
:101E2000BF010E9487128093992990939A29209349
:101E3000BC0A3093BD0A8091B50A81608093B50ACF
:101E400084E08093B00A8091B00A81608093B00AE8
:101E5000789461E070E08DE00E94180240E855E25D
:101E600060E070E087EA99E20E94E00787EA99E281
:101E70008093A5299093A62942E350E060E070E0AA
:101E80004093502A5093512A6093522A7093532AB8
:101E900081E090E08093582A9093592A4093682AD1
:101EA0005093692A60936A2A70936B2A8093702AF0
:101EB0009093712A4093802A5093812A6093822ABA
:101EC0007093832A8093882A9093892A7724739425
:101ED00043E0E42EF12C50E0C52E50E0D52E809149
:101EE000A5299091A629DC01ED91FC910084F18552
:101EF000E02D0995892B09F425C10091A5291091A0
:101F0000A6292FB7F8948091A1299091A229A09198
:101F1000A329B091A4292FBFF80180879187A287B8
:101F2000B387D801ED91FC910284F385E02DC801BF
:101F3000099597FF36C22FB7F8948091A129909107
:101F4000A229A091A329B091A4292FBFF80140850F
:101F5000518562857385841B950BA60BB70B448155
:101F600055816681778184179507A607B707C8F260
:101F700084E09AE60E94990080E00E94890083E054
:101F80000E94890080E00E94890080E00E94890010
:101F90006EE07AE6CE0101960E94390960E17AE6A8
:101FA000CE0107960E943909BE016F5F7F4FCE01B7
:101FB00007960E94EC08BC01CE010D960E94FF0816
:101FC000CE0107960E946A09CE0101960E946A0915
:101FD0008D859E850E94990080E00E948900CE0137
:101FE0000D960E946A09198E1A8E7B8E1C8E1D8E8C
:101FF00069E17AE6CE0143960E94390962E17AE608
:10200000CE0107960E94390964E17AE6CE01019675
:102010000E943909BE01695F7F4FCE0101960E947F
:10202000EC088C0141E050E066E17AE60E94AE08DF
:10203000811103C0C8010E94DA08B801CE010D96D3
:102040000E94FF08CE0101960E946A09CE01079600
:102050000E946A09BE01635F7F4FCE0101960E9414
:10206000FF0841E050E068E17AE6CE0101960E9467
:10207000AE08811104C0CE0101960E94DA08BE01AB
:102080006D5E7F4FCE0101960E94EC08BC01CE012F
:1020900007960E94FF08CE0101960E946A09CE01B0
:1020A0000D960E946A09CE0143960E946A09CE01EC
:1020B00049960E9472098F8198850E9499008BE34E
:1020C0000E9489008AE19AE60E94990080E00E94BD
:1020D0008900CE0107960E946A0969E17AE6CE017D
:1020E00007960E94390968E17AE6CE0101960E94BE
:1020F0003909BE01695F7F4FCE0101960E94EC084D
:10210000BC01CE010D960E94FF08CE0101960E94EF
:102110006A09CE0107960E946A098D859E850E94F4
:1021200099008BE30E94890084E59AE60E94990059
:1021300080E00E948900CE010D960E946A0980E02D
:102140000E9489000EE41AE2D8018C918B3208F0CB
:10215000BEC00E943303F801828B938B20893189A2
:102160008217930799F02FB7F8948091A129909145
:10217000A229A091A329B091A4292FBF848B958B6C
:10218000A68BB78B82899389808B918B2FB7F8941C
:102190008091A1299091A229A091A329B091A4296D
:1021A0002FBFF8014489558966897789841B950B6F
:1021B000A60BB70B42815381648175818417950703
:1021C000A607B70740F0868597858487958782891B
:1021D000938986879787D8011C962D913C911D97EE
:1021E0001E968D919C911F972817390709F4CBC033
:1021F0001A964D915C911B974230510509F06AC0C7
:1022000016964D915D916D917C9119974F5F5F4F3F
:102210006F4F7F4FF8014683578360877187213066
:10222000310509F0B0C0892B09F46BC0ACC0E9825C
:10223000FA828091542A9091552A808391838091CB
:102240006C2A90916D2A828393838091842A909145
:10225000852A8483958362E070E0CE0101960E9416
:102260007B0010E000E089819A810817190770F45B
:10227000C801880F991F2C813D8162E070E0820FB8
:10228000931F0E947B000F5F1F4FEDCFCE01019681
:102290000E94720957CF813009F054CF1092542A0E
:1022A0001092552A1092562A1092572A10926C2A90
:1022B00010926D2A10926E2A10926F2A1092842A20
:1022C0001092852A1092862A1092872A3BCF90E09E
:1022D00080E041CF4115510509F03FC02130310563
:1022E00009F051C0892B09F04EC0F8018681978111
:1022F000A085B1850196A11DB11D86839783A08716
:10230000B18761E070E08DE00E9476020E94580380
:102310004B015C01F0E28F0EF1EA9F1EF7E0AF1E69
:10232000B11C20E2821621EA920627E0A206B1043F
:1023300038F40E94580386169706A806B906C8F313
:102340000E945803681579058A059B05C8F370E05B
:1023500060E08DE00E94760216C04130510509F020
:102360005ECF2115310509F05ACF019761F4F801CC
:1023700086819781A085B1850196A11DB11D8683B7
:102380009783A087B187085E1F4F4AE2063914077A
:1023900009F0DACEC114D10409F4A1CD0E940000E5
:1023A00095CD8F3F09F4E4CD811175CF19821A8242
:1023B0007B821C821D8266E070E090E080E00E94DB
:1023C000EF13FC018C839D8389819A81DC01AA0F24
:1023D000BB1FAE0FBF1F8330910508F028CF1D92A1
:1023E0001D920196F8CF052E97FB1EF400940E94D3
:1023F0000A1257FD07D00E94561207FC03D04EF474
:102400000C940A1250954095309521953F4F4F4FAF
:102410005F4F089590958095709561957F4F8F4F90
:102420009F4F08950E947812A59F900DB49F900D24
:10243000A49F800D911D11240895B7FF0C941212D2
:102440000E941212821B930B08952F923F924F927B
:102450005F926F927F928F929F92AF92BF92CF9234
:10246000DF92EF92FF920F931F93CF93DF93CDB73D
:10247000DEB7CA1BDB0BCDBFDEBF09942A883988C3
:1024800048885F846E847D848C849B84AA84B9840C
:10249000C884DF80EE80FD800C811B81AA81B98118
:1024A000CE0FD11DCDBFDEBFED010895A1E21A2EE2
:1024B000AA1BBB1BFD010DC0AA1FBB1FEE1FFF1FE8
:1024C000A217B307E407F50720F0A21BB30BE40B38
:1024D000F50B661F771F881F991F1A9469F760957F
:1024E0007095809590959B01AC01BD01CF01089539
:1024F000A29FB001B39FC001A39F700D811D112445
:10250000911DB29F700D811D1124911D0895AA1B6C
:10251000BB1B51E107C0AA1FBB1FA617B70710F0CE
:10252000A61BB70B881F991F5A95A9F78095909500
:10253000BC01CD01089597FD1094002E083098F04D
:102540000850232F342F452F562F672F782F892F90
:10255000912DF4CF15949795879577956795579515
:102560004795379527950A95AAF71124002D0895C8
:102570000024A7FD00942A1730054005500560058A
:102580007005800590050895EE0FFF1F0590F491EA
:10259000E02D09940F931F93CF93DF938230910521
:1025A00010F482E090E0E091982AF091992A30E0CE
:1025B00020E0B0E0A0E0309799F42115310509F44E
:1025C0004AC0281B390B24303105D8F58A819B81FC
:1025D0006115710589F1FB0182839383FE0111C0AE
:1025E000408151810281138148175907E0F0481753
:1025F000590799F4109761F012960C93129713965D
:102600001C933296CF01DF91CF911F910F910895C6
:102610000093982A1093992AF4CF2115310551F08F
:102620004217530738F0A901DB019A01BD01DF0110
:10263000F801C1CFEF01F9CF8093982A9093992A9E
:10264000CDCFFE01E20FF31F819391932250310908
:1026500028833983D7CF2091962A3091972A232B2C
:1026600041F420910628309107282093962A309330
:10267000972A20910428309105282115310541F42D
:102680002DB73EB74091082850910928241B350BDF
:10269000E091962AF091972AE217F307A0F42E1BF7
:1026A0003F0B2817390778F0AC014E5F5F4F2417B6
:1026B000350748F04E0F5F1F4093962A5093972A94
:1026C000819391939FCFF0E0E0E09CCFCF93DF9395
:1026D0000097E9F0FC01329712821382A091982AA8
:1026E000B091992AED0130E020E01097A1F420810B
:1026F0003181820F931F2091962A3091972A2817B3
:10270000390709F061C0E093962AF093972ADF9188
:10271000CF910895EA01CE17DF07E8F54A815B8182
:102720009E0141155105B1F7E901EA83FB83499107
:102730005991C40FD51FEC17FD0761F48081918179
:102740000296840F951FE901888399838281938182
:102750008A839B83F0E0E0E012968D919C91139721
:102760000097B9F52D913C911197CD010296820FFA
:10277000931F2091962A3091972A2817390739F606
:10278000309751F51092982A1092992AA093962A80
:10279000B093972ABCCFC283D38340815181840FE9
:1027A000951FC817D90761F44E5F5F4F88819981E3
:1027B000480F591F408351838A819B818283938371
:1027C0002115310509F0B0CFE093982AF093992AAA
:1027D0009ECFFD01DC01C0CF12821382D7CFB0E0C3
:1027E000A0E0E5EFF3E10C9427128C01009751F47F
:1027F000CB010E94CA128C01C801CDB7DEB7E0E15F
:102800000C944012FC01E60FF71F9C012250310985
:10281000E217F30708F49DC0D901CD91DC9111971F
:10282000C617D70798F0C530D10530F3CE0104970D
:102830008617970708F3C61BD70B2297C193D1932E
:102840006D937C93CF010E946613D6CF5B01AC1AC7
:10285000BD0A4C018C0E9D1EA091982AB091992A18
:10286000512C412CF12CE12C109731F58091962AB6
:102870009091972A8815990509F05CC0461657066D
:1028800008F058C08091042890910528009741F4E1
:102890008DB79EB74091082850910928841B950B4D
:1028A000E817F90708F055C0E093962AF093972AA5
:1028B000F90160837183A0CF8D919C91119712963D
:1028C0006C90129713967C901397A815B90559F53B
:1028D0006C0142E0C40ED11CCA14DB0420F1AC012F
:1028E0004A195B09DA011296159780F062827382A9
:1028F00040835183D9016D937C93E114F10471F00D
:10290000D7011296ED93FC93139776CF22968C0FF6
:102910009D1FF90180839183F301EFCFE093982A03
:10292000F093992A69CF4816590608F42C017D01C5
:10293000D3019ACFCB010E94CA127C01009749F0C3
:10294000AE01B8010E94AC14C8010E946613870151
:1029500053CF10E000E050CFFB01DC0102C001903A
:102960000D9241505040D8F70895FB01DC010190D1
:0C2970000D920020E1F70895F894FFCFCD
:10297C000000000300010200000101000000000043
:10298C000000000000000000000005040005060225
:10299C00040103000100010203020100020304050B
:1029AC0002030504020200050201050004010104F2
:1029BC0004040303030305050303000001012010B5
:1029CC000120400410020801020102040804020163
:1029DC000408102004082010000000004001B3017E
:1029EC00A5009101D600B400C800E007B902E200CE
:1029FC00160200000000640873696D706C6552501B
:102A0C00430048003C0068005B005D003A006275C2
:102A1C0074746F6E5F73746174653A2047657420CB
:102A2C00627574746F6E2073746174652E204072BD
:102A3C00657475726E3A2054686520627574746F93
:102A4C006E2D73746174650072657365745F627565
:102A5C0074746F6E5F73746174653A20526573653C
:0F2A6C007420627574746F6E20737461746500EA
:0A2A7B000024F40000009A2A8000F5
:00000001FF
